:100000000C9483000C9400000C9400000C940000ED
:100010000C9400000C9400000C9400000C94000060
:100020000C9400000C9400000C9400000C94000050
:100030000C9400000C9400000C9400000C94000040
:100040000C9400000C9400000C9400000C94000030
:100050000C9400000C9400000C9400000C94000020
:100060000C9400000C9400000C9400000C94000010
:100070000C9400000C9400000C9400000C94000000
:0C0080000C9400000C9400000C94000094
:10010600BFEFBDBFB0E1BEBFEEDFBFEFBABBB0E031
:06011600BBBBBFDFFFCF01
:1000EC00B0E0B0939000BFE1B9B9B0E0BBB9B8E1F2
:0A00FC00BAB9B6E8B0939500089574
:10009800CF93DF93CDB7DEB72897CDBFDEBF2196CC
:1000A80020E030E0EFDF0883003091F007E010E057
:1000B800201731076CF48E010F5F1F4FF901E00F15
:1000C800F11F0881008389010F5F1F4F980102C04B
:1000D8002BBB01C0E7CFE4CF2796CDBFDEBFDF91B2
:0400E800CF91089517
:0C008C00BBB1B7FD01C0FCCF0CB1089562
:00000001FF
