:100000000C945D000C9400000C9400000C94000013
:100010000C9400000C9400000C9400000C94000060
:100020000C9400000C9400000C9400000C94000050
:100030000C9400000C9400000C9400000C94000040
:100040000C9400000C9400000C9400000C94000030
:100050000C9400000C9400000C9400000C94000020
:100060000C9400000C9400000C9400000C94000010
:100070000C9400000C9400000C9400000C94000000
:0C0080000C9400000C9400000C94000094
:1000BA00BFEFBDBFB0E1BEBFEEDFBFEFBABBB0E07E
:0600CA00BBBBE5DFFFCF28
:1000A000B0E0B0939000BFE1B9B9B0E0BBB9B8E13E
:0A00B000BAB9B6E8B09395000895C0
:08009800F9DF0BBBFDCF089559
:0C008C00BBB1B7FD01C0FCCF0CB1089562
:00000001FF
